{
  "contractName": "Contract",
  "abi": [
    {
      "anonymous": false,
      "inputs": [
        {
          "indexed": true,
          "internalType": "address",
          "name": "id",
          "type": "address"
        }
      ],
      "name": "NewUserRegistered",
      "type": "event"
    },
    {
      "anonymous": false,
      "inputs": [
        {
          "indexed": true,
          "internalType": "address",
          "name": "id",
          "type": "address"
        },
        {
          "indexed": false,
          "internalType": "bytes32",
          "name": "message",
          "type": "bytes32"
        }
      ],
      "name": "NonTechnicalSubmission",
      "type": "event"
    },
    {
      "anonymous": false,
      "inputs": [
        {
          "indexed": true,
          "internalType": "address",
          "name": "previousOwner",
          "type": "address"
        },
        {
          "indexed": true,
          "internalType": "address",
          "name": "newOwner",
          "type": "address"
        }
      ],
      "name": "OwnershipTransferred",
      "type": "event"
    },
    {
      "anonymous": false,
      "inputs": [
        {
          "indexed": true,
          "internalType": "address",
          "name": "id",
          "type": "address"
        },
        {
          "indexed": false,
          "internalType": "bytes32",
          "name": "message",
          "type": "bytes32"
        }
      ],
      "name": "TechnicalSubmission",
      "type": "event"
    },
    {
      "inputs": [],
      "name": "owner",
      "outputs": [
        {
          "internalType": "address",
          "name": "",
          "type": "address"
        }
      ],
      "stateMutability": "view",
      "type": "function",
      "constant": true
    },
    {
      "inputs": [],
      "name": "renounceOwnership",
      "outputs": [],
      "stateMutability": "nonpayable",
      "type": "function"
    },
    {
      "inputs": [
        {
          "internalType": "address",
          "name": "newOwner",
          "type": "address"
        }
      ],
      "name": "transferOwnership",
      "outputs": [],
      "stateMutability": "nonpayable",
      "type": "function"
    },
    {
      "inputs": [
        {
          "internalType": "address",
          "name": "",
          "type": "address"
        }
      ],
      "name": "users",
      "outputs": [
        {
          "internalType": "uint8",
          "name": "level",
          "type": "uint8"
        },
        {
          "internalType": "bytes32",
          "name": "message",
          "type": "bytes32"
        },
        {
          "internalType": "bool",
          "name": "done",
          "type": "bool"
        },
        {
          "internalType": "bool",
          "name": "registered",
          "type": "bool"
        }
      ],
      "stateMutability": "view",
      "type": "function",
      "constant": true
    },
    {
      "inputs": [
        {
          "internalType": "string",
          "name": "_message",
          "type": "string"
        }
      ],
      "name": "sendMessageNonTechnical",
      "outputs": [],
      "stateMutability": "payable",
      "type": "function",
      "payable": true
    },
    {
      "inputs": [],
      "name": "register",
      "outputs": [],
      "stateMutability": "payable",
      "type": "function",
      "payable": true
    },
    {
      "inputs": [],
      "name": "getQuestions",
      "outputs": [
        {
          "internalType": "string",
          "name": "",
          "type": "string"
        },
        {
          "internalType": "string",
          "name": "",
          "type": "string"
        },
        {
          "internalType": "string",
          "name": "",
          "type": "string"
        },
        {
          "internalType": "string",
          "name": "",
          "type": "string"
        }
      ],
      "stateMutability": "view",
      "type": "function",
      "constant": true
    },
    {
      "inputs": [
        {
          "internalType": "string",
          "name": "_answer",
          "type": "string"
        }
      ],
      "name": "sendQuestionA",
      "outputs": [],
      "stateMutability": "nonpayable",
      "type": "function"
    },
    {
      "inputs": [
        {
          "internalType": "string",
          "name": "_answer",
          "type": "string"
        }
      ],
      "name": "sendQuestionB",
      "outputs": [],
      "stateMutability": "nonpayable",
      "type": "function"
    },
    {
      "inputs": [
        {
          "internalType": "string",
          "name": "_answer",
          "type": "string"
        }
      ],
      "name": "sendQuestionC",
      "outputs": [],
      "stateMutability": "nonpayable",
      "type": "function"
    },
    {
      "inputs": [
        {
          "internalType": "string",
          "name": "_answer",
          "type": "string"
        }
      ],
      "name": "sendQuestionD",
      "outputs": [],
      "stateMutability": "nonpayable",
      "type": "function"
    },
    {
      "inputs": [
        {
          "internalType": "string",
          "name": "_message",
          "type": "string"
        }
      ],
      "name": "sendMessageTechnical",
      "outputs": [],
      "stateMutability": "nonpayable",
      "type": "function"
    },
    {
      "inputs": [
        {
          "internalType": "string",
          "name": "_question",
          "type": "string"
        },
        {
          "internalType": "string",
          "name": "_answer",
          "type": "string"
        }
      ],
      "name": "addQuestionAnswer",
      "outputs": [],
      "stateMutability": "nonpayable",
      "type": "function"
    },
    {
      "inputs": [],
      "name": "popQuestionAnswer",
      "outputs": [],
      "stateMutability": "nonpayable",
      "type": "function"
    }
  ],
  "bytecode": "0x608060405234801561001057600080fd5b506000339050806000806101000a81548173ffffffffffffffffffffffffffffffffffffffff021916908373ffffffffffffffffffffffffffffffffffffffff1602179055508073ffffffffffffffffffffffffffffffffffffffff16600073ffffffffffffffffffffffffffffffffffffffff167f8be0079c531659141344cd1fd0a4f28419497f9722a3daafe3b4186f6b6457e060405160405180910390a3506128a8806100c16000396000f3fe6080604052600436106100dd5760003560e01c8063a5a47cc31161007f578063d9febd1d11610059578063d9febd1d1461080b578063eddf9b35146108d3578063f2fde38b1461099b578063f7870c40146109ec576100dd565b8063a5a47cc3146105fa578063a87430ba146106c2578063d2b49d1d14610743576100dd565b80636933b863116100bb5780636933b8631461026f578063715018a6146103ce5780638da5cb5b146103e557806397221ab714610426576100dd565b806307d5099a146100e25780631aa3a008146101aa57806359b7465a146101b4575b600080fd5b3480156100ee57600080fd5b506101a86004803603602081101561010557600080fd5b810190808035906020019064010000000081111561012257600080fd5b82018360208201111561013457600080fd5b8035906020019184600183028401116401000000008311171561015657600080fd5b91908080601f016020809104026020016040519081016040528093929190818152602001838380828437600081840152601f19601f820116905080830192505050505050509192919290505050610a03565b005b6101b2610cee565b005b61026d600480360360208110156101ca57600080fd5b81019080803590602001906401000000008111156101e757600080fd5b8201836020820111156101f957600080fd5b8035906020019184600183028401116401000000008311171561021b57600080fd5b91908080601f016020809104026020016040519081016040528093929190818152602001838380828437600081840152601f19601f820116905080830192505050505050509192919290505050610e8d565b005b34801561027b57600080fd5b506103cc6004803603604081101561029257600080fd5b81019080803590602001906401000000008111156102af57600080fd5b8201836020820111156102c157600080fd5b803590602001918460018302840111640100000000831117156102e357600080fd5b91908080601f016020809104026020016040519081016040528093929190818152602001838380828437600081840152601f19601f8201169050808301925050505050505091929192908035906020019064010000000081111561034657600080fd5b82018360208201111561035857600080fd5b8035906020019184600183028401116401000000008311171561037a57600080fd5b91908080601f016020809104026020016040519081016040528093929190818152602001838380828437600081840152601f19601f8201169050808301925050505050505091929192905050506111a3565b005b3480156103da57600080fd5b506103e36112e0565b005b3480156103f157600080fd5b506103fa61145f565b604051808273ffffffffffffffffffffffffffffffffffffffff16815260200191505060405180910390f35b34801561043257600080fd5b5061043b611488565b6040518080602001806020018060200180602001858103855289818151815260200191508051906020019080838360005b8381101561048757808201518184015260208101905061046c565b50505050905090810190601f1680156104b45780820380516001836020036101000a031916815260200191505b50858103845288818151815260200191508051906020019080838360005b838110156104ed5780820151818401526020810190506104d2565b50505050905090810190601f16801561051a5780820380516001836020036101000a031916815260200191505b50858103835287818151815260200191508051906020019080838360005b83811015610553578082015181840152602081019050610538565b50505050905090810190601f1680156105805780820380516001836020036101000a031916815260200191505b50858103825286818151815260200191508051906020019080838360005b838110156105b957808201518184015260208101905061059e565b50505050905090810190601f1680156105e65780820380516001836020036101000a031916815260200191505b509850505050505050505060405180910390f35b34801561060657600080fd5b506106c06004803603602081101561061d57600080fd5b810190808035906020019064010000000081111561063a57600080fd5b82018360208201111561064c57600080fd5b8035906020019184600183028401116401000000008311171561066e57600080fd5b91908080601f016020809104026020016040519081016040528093929190818152602001838380828437600081840152601f19601f8201169050808301925050505050505091929192905050506117c4565b005b3480156106ce57600080fd5b50610711600480360360208110156106e557600080fd5b81019080803573ffffffffffffffffffffffffffffffffffffffff169060200190929190505050611aae565b604051808560ff1681526020018481526020018315158152602001821515815260200194505050505060405180910390f35b34801561074f57600080fd5b506108096004803603602081101561076657600080fd5b810190808035906020019064010000000081111561078357600080fd5b82018360208201111561079557600080fd5b803590602001918460018302840111640100000000831117156107b757600080fd5b91908080601f016020809104026020016040519081016040528093929190818152602001838380828437600081840152601f19601f820116905080830192505050505050509192919290505050611b05565b005b34801561081757600080fd5b506108d16004803603602081101561082e57600080fd5b810190808035906020019064010000000081111561084b57600080fd5b82018360208201111561085d57600080fd5b8035906020019184600183028401116401000000008311171561087f57600080fd5b91908080601f016020809104026020016040519081016040528093929190818152602001838380828437600081840152601f19601f820116905080830192505050505050509192919290505050611e6a565b005b3480156108df57600080fd5b50610999600480360360208110156108f657600080fd5b810190808035906020019064010000000081111561091357600080fd5b82018360208201111561092557600080fd5b8035906020019184600183028401116401000000008311171561094757600080fd5b91908080601f016020809104026020016040519081016040528093929190818152602001838380828437600081840152601f19601f820116905080830192505050505050509192919290505050612154565b005b3480156109a757600080fd5b506109ea600480360360208110156109be57600080fd5b81019080803573ffffffffffffffffffffffffffffffffffffffff16906020019092919050505061243f565b005b3480156109f857600080fd5b50610a01612643565b005b60038060ff16600360003373ffffffffffffffffffffffffffffffffffffffff1673ffffffffffffffffffffffffffffffffffffffff16815260200190815260200160002060000160009054906101000a900460ff1660ff1614610acf576040517f08c379a000000000000000000000000000000000000000000000000000000000815260040180806020018281038252600c8152602001807f57726f6e67204c6576656c21000000000000000000000000000000000000000081525060200191505060405180910390fd5b6002600081548110610add57fe5b906000526020600020016040516020018080602001828103825283818154600181600116156101000203166002900481526020019150805460018160011615610100020316600290048015610b735780601f10610b4857610100808354040283529160200191610b73565b820191906000526020600020905b815481529060010190602001808311610b5657829003601f168201915b50509250505060405160208183030381529060405280519060200120826040516020018080602001828103825283818151815260200191508051906020019080838360005b83811015610bd3578082015181840152602081019050610bb8565b50505050905090810190601f168015610c005780820380516001836020036101000a031916815260200191505b50925050506040516020818303038152906040528051906020012014610c8e576040517f08c379a000000000000000000000000000000000000000000000000000000000815260040180806020018281038252600c8152602001807f57726f6e6720416e73776572000000000000000000000000000000000000000081525060200191505060405180910390fd5b6004600360003373ffffffffffffffffffffffffffffffffffffffff1673ffffffffffffffffffffffffffffffffffffffff16815260200190815260200160002060000160006101000a81548160ff021916908360ff1602179055505050565b67016345785d8a0000341015610d6c576040517f08c379a000000000000000000000000000000000000000000000000000000000815260040180806020018281038252600e8152602001807f47495645204d45204d4f4e45592100000000000000000000000000000000000081525060200191505060405180910390fd5b6040518060800160405280600060ff1681526020016000801916815260200160001515815260200160011515815250600360003373ffffffffffffffffffffffffffffffffffffffff1673ffffffffffffffffffffffffffffffffffffffff16815260200190815260200160002060008201518160000160006101000a81548160ff021916908360ff1602179055506020820151816001015560408201518160020160006101000a81548160ff02191690831515021790555060608201518160020160016101000a81548160ff0219169083151502179055509050503373ffffffffffffffffffffffffffffffffffffffff167ff382cb45b37e0f2786ad5a8328040a5c6a63584130f9076ba1627d420ffadc8b60405160405180910390a2565b67016345785d8a0000341015610f0b576040517f08c379a000000000000000000000000000000000000000000000000000000000815260040180806020018281038252600e8152602001807f47495645204d45204d4f4e45592100000000000000000000000000000000000081525060200191505060405180910390fd5b600360003373ffffffffffffffffffffffffffffffffffffffff1673ffffffffffffffffffffffffffffffffffffffff16815260200190815260200160002060020160009054906101000a900460ff1615610fce576040517f08c379a000000000000000000000000000000000000000000000000000000000815260040180806020018281038252600d8152602001807f446f6e6520616c7265616479210000000000000000000000000000000000000081525060200191505060405180910390fd5b806040516020018082805190602001908083835b602083106110055780518252602082019150602081019050602083039250610fe2565b6001836020036101000a03801982511681845116808217855250505050505090500191505060405160208183030381529060405280519060200120600360003373ffffffffffffffffffffffffffffffffffffffff1673ffffffffffffffffffffffffffffffffffffffff168152602001908152602001600020600101819055506001600360003373ffffffffffffffffffffffffffffffffffffffff1673ffffffffffffffffffffffffffffffffffffffff16815260200190815260200160002060020160006101000a81548160ff0219169083151502179055503373ffffffffffffffffffffffffffffffffffffffff167f9fb8161cb84ddfd95a8867078fab43982b83351d224aecc9b489285c4794ed9e826040516020018082805190602001908083835b60208310611150578051825260208201915060208101905060208303925061112d565b6001836020036101000a038019825116818451168082178552505050505050905001915050604051602081830303815290604052805190602001206040518082815260200191505060405180910390a250565b3373ffffffffffffffffffffffffffffffffffffffff1660008054906101000a900473ffffffffffffffffffffffffffffffffffffffff1673ffffffffffffffffffffffffffffffffffffffff1614611264576040517f08c379a00000000000000000000000000000000000000000000000000000000081526004018080602001828103825260208152602001807f4f776e61626c653a2063616c6c6572206973206e6f7420746865206f776e657281525060200191505060405180910390fd5b60018290806001815401808255809150506001900390600052602060002001600090919091909150908051906020019061129f929190612767565b506002819080600181540180825580915050600190039060005260206000200160009091909190915090805190602001906112db929190612767565b505050565b3373ffffffffffffffffffffffffffffffffffffffff1660008054906101000a900473ffffffffffffffffffffffffffffffffffffffff1673ffffffffffffffffffffffffffffffffffffffff16146113a1576040517f08c379a00000000000000000000000000000000000000000000000000000000081526004018080602001828103825260208152602001807f4f776e61626c653a2063616c6c6572206973206e6f7420746865206f776e657281525060200191505060405180910390fd5b600073ffffffffffffffffffffffffffffffffffffffff1660008054906101000a900473ffffffffffffffffffffffffffffffffffffffff1673ffffffffffffffffffffffffffffffffffffffff167f8be0079c531659141344cd1fd0a4f28419497f9722a3daafe3b4186f6b6457e060405160405180910390a360008060006101000a81548173ffffffffffffffffffffffffffffffffffffffff021916908373ffffffffffffffffffffffffffffffffffffffff160217905550565b60008060009054906101000a900473ffffffffffffffffffffffffffffffffffffffff16905090565b606080606080600360003373ffffffffffffffffffffffffffffffffffffffff1673ffffffffffffffffffffffffffffffffffffffff16815260200190815260200160002060020160019054906101000a900460ff166114e757600080fd5b60016000815481106114f557fe5b906000526020600020016001808154811061150c57fe5b90600052602060002001600160028154811061152457fe5b90600052602060002001600160038154811061153c57fe5b90600052602060002001838054600181600116156101000203166002900480601f0160208091040260200160405190810160405280929190818152602001828054600181600116156101000203166002900480156115db5780601f106115b0576101008083540402835291602001916115db565b820191906000526020600020905b8154815290600101906020018083116115be57829003601f168201915b50505050509350828054600181600116156101000203166002900480601f0160208091040260200160405190810160405280929190818152602001828054600181600116156101000203166002900480156116775780601f1061164c57610100808354040283529160200191611677565b820191906000526020600020905b81548152906001019060200180831161165a57829003601f168201915b50505050509250818054600181600116156101000203166002900480601f0160208091040260200160405190810160405280929190818152602001828054600181600116156101000203166002900480156117135780601f106116e857610100808354040283529160200191611713565b820191906000526020600020905b8154815290600101906020018083116116f657829003601f168201915b50505050509150808054600181600116156101000203166002900480601f0160208091040260200160405190810160405280929190818152602001828054600181600116156101000203166002900480156117af5780601f10611784576101008083540402835291602001916117af565b820191906000526020600020905b81548152906001019060200180831161179257829003601f168201915b50505050509050935093509350935090919293565b60028060ff16600360003373ffffffffffffffffffffffffffffffffffffffff1673ffffffffffffffffffffffffffffffffffffffff16815260200190815260200160002060000160009054906101000a900460ff1660ff1614611890576040517f08c379a000000000000000000000000000000000000000000000000000000000815260040180806020018281038252600c8152602001807f57726f6e67204c6576656c21000000000000000000000000000000000000000081525060200191505060405180910390fd5b600260018154811061189e57fe5b9060005260206000200160405160200180806020018281038252838181546001816001161561010002031660029004815260200191508054600181600116156101000203166002900480156119345780601f1061190957610100808354040283529160200191611934565b820191906000526020600020905b81548152906001019060200180831161191757829003601f168201915b50509250505060405160208183030381529060405280519060200120826040516020018080602001828103825283818151815260200191508051906020019080838360005b83811015611994578082015181840152602081019050611979565b50505050905090810190601f1680156119c15780820380516001836020036101000a031916815260200191505b50925050506040516020818303038152906040528051906020012014611a4f576040517f08c379a000000000000000000000000000000000000000000000000000000000815260040180806020018281038252600c8152602001807f57726f6e6720416e73776572000000000000000000000000000000000000000081525060200191505060405180910390fd5b60038060003373ffffffffffffffffffffffffffffffffffffffff1673ffffffffffffffffffffffffffffffffffffffff16815260200190815260200160002060000160006101000a81548160ff021916908360ff1602179055505050565b60036020528060005260406000206000915090508060000160009054906101000a900460ff16908060010154908060020160009054906101000a900460ff16908060020160019054906101000a900460ff16905084565b60048060ff16600360003373ffffffffffffffffffffffffffffffffffffffff1673ffffffffffffffffffffffffffffffffffffffff16815260200190815260200160002060000160009054906101000a900460ff1660ff1614611bd1576040517f08c379a000000000000000000000000000000000000000000000000000000000815260040180806020018281038252600c8152602001807f57726f6e67204c6576656c21000000000000000000000000000000000000000081525060200191505060405180910390fd5b600360003373ffffffffffffffffffffffffffffffffffffffff1673ffffffffffffffffffffffffffffffffffffffff16815260200190815260200160002060020160009054906101000a900460ff1615611c94576040517f08c379a000000000000000000000000000000000000000000000000000000000815260040180806020018281038252600d8152602001807f446f6e6520616c7265616479210000000000000000000000000000000000000081525060200191505060405180910390fd5b816040516020018082805190602001908083835b60208310611ccb5780518252602082019150602081019050602083039250611ca8565b6001836020036101000a03801982511681845116808217855250505050505090500191505060405160208183030381529060405280519060200120600360003373ffffffffffffffffffffffffffffffffffffffff1673ffffffffffffffffffffffffffffffffffffffff168152602001908152602001600020600101819055506001600360003373ffffffffffffffffffffffffffffffffffffffff1673ffffffffffffffffffffffffffffffffffffffff16815260200190815260200160002060020160006101000a81548160ff0219169083151502179055503373ffffffffffffffffffffffffffffffffffffffff167fabfa8fb004bd83593bf4ba020df2a91e27b5c15ac6d32fea51b6e77f33d165b4836040516020018082805190602001908083835b60208310611e165780518252602082019150602081019050602083039250611df3565b6001836020036101000a038019825116818451168082178552505050505050905001915050604051602081830303815290604052805190602001206040518082815260200191505060405180910390a25050565b60008060ff16600360003373ffffffffffffffffffffffffffffffffffffffff1673ffffffffffffffffffffffffffffffffffffffff16815260200190815260200160002060000160009054906101000a900460ff1660ff1614611f36576040517f08c379a000000000000000000000000000000000000000000000000000000000815260040180806020018281038252600c8152602001807f57726f6e67204c6576656c21000000000000000000000000000000000000000081525060200191505060405180910390fd5b60028081548110611f4357fe5b906000526020600020016040516020018080602001828103825283818154600181600116156101000203166002900481526020019150805460018160011615610100020316600290048015611fd95780601f10611fae57610100808354040283529160200191611fd9565b820191906000526020600020905b815481529060010190602001808311611fbc57829003601f168201915b50509250505060405160208183030381529060405280519060200120826040516020018080602001828103825283818151815260200191508051906020019080838360005b8381101561203957808201518184015260208101905061201e565b50505050905090810190601f1680156120665780820380516001836020036101000a031916815260200191505b509250505060405160208183030381529060405280519060200120146120f4576040517f08c379a000000000000000000000000000000000000000000000000000000000815260040180806020018281038252600c8152602001807f57726f6e6720416e73776572000000000000000000000000000000000000000081525060200191505060405180910390fd5b6001600360003373ffffffffffffffffffffffffffffffffffffffff1673ffffffffffffffffffffffffffffffffffffffff16815260200190815260200160002060000160006101000a81548160ff021916908360ff1602179055505050565b60018060ff16600360003373ffffffffffffffffffffffffffffffffffffffff1673ffffffffffffffffffffffffffffffffffffffff16815260200190815260200160002060000160009054906101000a900460ff1660ff1614612220576040517f08c379a000000000000000000000000000000000000000000000000000000000815260040180806020018281038252600c8152602001807f57726f6e67204c6576656c21000000000000000000000000000000000000000081525060200191505060405180910390fd5b600260038154811061222e57fe5b9060005260206000200160405160200180806020018281038252838181546001816001161561010002031660029004815260200191508054600181600116156101000203166002900480156122c45780601f10612299576101008083540402835291602001916122c4565b820191906000526020600020905b8154815290600101906020018083116122a757829003601f168201915b50509250505060405160208183030381529060405280519060200120826040516020018080602001828103825283818151815260200191508051906020019080838360005b83811015612324578082015181840152602081019050612309565b50505050905090810190601f1680156123515780820380516001836020036101000a031916815260200191505b509250505060405160208183030381529060405280519060200120146123df576040517f08c379a000000000000000000000000000000000000000000000000000000000815260040180806020018281038252600c8152602001807f57726f6e6720416e73776572000000000000000000000000000000000000000081525060200191505060405180910390fd5b6002600360003373ffffffffffffffffffffffffffffffffffffffff1673ffffffffffffffffffffffffffffffffffffffff16815260200190815260200160002060000160006101000a81548160ff021916908360ff1602179055505050565b3373ffffffffffffffffffffffffffffffffffffffff1660008054906101000a900473ffffffffffffffffffffffffffffffffffffffff1673ffffffffffffffffffffffffffffffffffffffff1614612500576040517f08c379a00000000000000000000000000000000000000000000000000000000081526004018080602001828103825260208152602001807f4f776e61626c653a2063616c6c6572206973206e6f7420746865206f776e657281525060200191505060405180910390fd5b600073ffffffffffffffffffffffffffffffffffffffff168173ffffffffffffffffffffffffffffffffffffffff161415612586576040517f08c379a000000000000000000000000000000000000000000000000000000000815260040180806020018281038252602681526020018061284d6026913960400191505060405180910390fd5b8073ffffffffffffffffffffffffffffffffffffffff1660008054906101000a900473ffffffffffffffffffffffffffffffffffffffff1673ffffffffffffffffffffffffffffffffffffffff167f8be0079c531659141344cd1fd0a4f28419497f9722a3daafe3b4186f6b6457e060405160405180910390a3806000806101000a81548173ffffffffffffffffffffffffffffffffffffffff021916908373ffffffffffffffffffffffffffffffffffffffff16021790555050565b3373ffffffffffffffffffffffffffffffffffffffff1660008054906101000a900473ffffffffffffffffffffffffffffffffffffffff1673ffffffffffffffffffffffffffffffffffffffff1614612704576040517f08c379a00000000000000000000000000000000000000000000000000000000081526004018080602001828103825260208152602001807f4f776e61626c653a2063616c6c6572206973206e6f7420746865206f776e657281525060200191505060405180910390fd5b6000600180549050111561276557600180548061271d57fe5b60019003818190600052602060002001600061273991906127e7565b9055600280548061274657fe5b60019003818190600052602060002001600061276291906127e7565b90555b565b828054600181600116156101000203166002900490600052602060002090601f016020900481019282601f106127a857805160ff19168380011785556127d6565b828001600101855582156127d6579182015b828111156127d55782518255916020019190600101906127ba565b5b5090506127e3919061282f565b5090565b50805460018160011615610100020316600290046000825580601f1061280d575061282c565b601f01602090049060005260206000209081019061282b919061282f565b5b50565b5b80821115612848576000816000905550600101612830565b509056fe4f776e61626c653a206e6577206f776e657220697320746865207a65726f2061646472657373a2646970667358221220bec91806fc507622d339eee77c059dd90bd9308e3c1fd16ade86307b35f3aa0964736f6c63430007000033",
  "immutableReferences": {},
  "source": "// SPDX-License-Identifier: UNLICENSED\r\npragma solidity ^0.7.0;\r\n\r\nimport \"./openzeppelin/Ownable.sol\";\r\n\r\ncontract Contract is Ownable {\r\n    string[] private questions;\r\n    string[] private answers;\r\n\r\n    struct User {\r\n        uint8 level;\r\n        bytes32 message;\r\n        bool done;\r\n        bool registered;\r\n    }\r\n\r\n    mapping(address => User) public users;\r\n\r\n    // event fired when an user is registered\r\n    event NewUserRegistered(address indexed id);\r\n\r\n    // event fired when a non technical submission is received\r\n    event NonTechnicalSubmission(address indexed id, bytes32 message);\r\n\r\n    // event fired when a technical submission is received\r\n    event TechnicalSubmission(address indexed id, bytes32 message);\r\n\r\n    // Modifier: check if the caller of the smart contract is registered\r\n    modifier onlyRegistered {\r\n        require(users[msg.sender].registered);\r\n        _;\r\n    }\r\n\r\n    modifier onlyLevel(uint8 _level) {\r\n        require(users[msg.sender].level == _level, \"Wrong Level!\");\r\n        _;\r\n    }\r\n\r\n    function sendMessageNonTechnical(string memory _message) public payable {\r\n        require(msg.value >= 0.1 ether, \"GIVE ME MONEY!\");\r\n        require(!users[msg.sender].done, \"Done already!\");\r\n\r\n        users[msg.sender].message = keccak256(abi.encodePacked(_message));\r\n        users[msg.sender].done = true;\r\n        emit NonTechnicalSubmission(\r\n            msg.sender,\r\n            keccak256(abi.encodePacked(_message))\r\n        );\r\n    }\r\n\r\n    function register() public payable {\r\n        require(msg.value >= 0.1 ether, \"GIVE ME MONEY!\");\r\n\r\n        users[msg.sender] = User({\r\n            message: \"\",\r\n            level: 0,\r\n            done: false,\r\n            registered: true\r\n        });\r\n\r\n        emit NewUserRegistered(msg.sender);\r\n    }\r\n\r\n    function getQuestions()\r\n        public\r\n        view\r\n        onlyRegistered\r\n        returns (\r\n            string memory,\r\n            string memory,\r\n            string memory,\r\n            string memory\r\n        )\r\n    {\r\n        return (questions[0], questions[1], questions[2], questions[3]);\r\n    }\r\n\r\n    function sendQuestionA(string memory _answer) public onlyLevel(3) {\r\n        require(\r\n            keccak256(abi.encode(_answer)) == keccak256(abi.encode(answers[0])),\r\n            \"Wrong Answer\"\r\n        );\r\n        users[msg.sender].level = 4;\r\n    }\r\n\r\n    function sendQuestionB(string memory _answer) public onlyLevel(2) {\r\n        require(\r\n            keccak256(abi.encode(_answer)) == keccak256(abi.encode(answers[1])),\r\n            \"Wrong Answer\"\r\n        );\r\n        users[msg.sender].level = 3;\r\n    }\r\n\r\n    function sendQuestionC(string memory _answer) public onlyLevel(0) {\r\n        require(\r\n            keccak256(abi.encode(_answer)) == keccak256(abi.encode(answers[2])),\r\n            \"Wrong Answer\"\r\n        );\r\n        users[msg.sender].level = 1;\r\n    }\r\n\r\n    function sendQuestionD(string memory _answer) public onlyLevel(1) {\r\n        require(\r\n            keccak256(abi.encode(_answer)) == keccak256(abi.encode(answers[3])),\r\n            \"Wrong Answer\"\r\n        );\r\n        users[msg.sender].level = 2;\r\n    }\r\n\r\n    function sendMessageTechnical(string memory _message) public onlyLevel(4) {\r\n        require(!users[msg.sender].done, \"Done already!\");\r\n\r\n        users[msg.sender].message = keccak256(abi.encodePacked(_message));\r\n        users[msg.sender].done = true;\r\n        emit TechnicalSubmission(\r\n            msg.sender,\r\n            keccak256(abi.encodePacked(_message))\r\n        );\r\n    }\r\n\r\n    function addQuestionAnswer(string memory _question, string memory _answer)\r\n        public\r\n        onlyOwner\r\n    {\r\n        questions.push(_question);\r\n        answers.push(_answer);\r\n    }\r\n\r\n    function popQuestionAnswer() public onlyOwner {\r\n        if (questions.length > 0) {\r\n            questions.pop();\r\n            answers.pop();\r\n        }\r\n    }\r\n}\r\n",
  "sourcePath": "C:/Users/rsadi/onccbc/contracts/Contract.sol",
  "compiler": {
    "name": "solc",
    "version": "0.7.0+commit.9e61f92b.Emscripten.clang"
  },
  "schemaVersion": "3.2.5",
  "updatedAt": "2020-09-23T18:36:58.258Z",
  "networkType": "ethereum",
  "devdoc": {
    "kind": "dev",
    "methods": {
      "owner()": {
        "details": "Returns the address of the current owner."
      },
      "renounceOwnership()": {
        "details": "Leaves the contract without owner. It will not be possible to call `onlyOwner` functions anymore. Can only be called by the current owner. NOTE: Renouncing ownership will leave the contract without an owner, thereby removing any functionality that is only available to the owner."
      },
      "transferOwnership(address)": {
        "details": "Transfers ownership of the contract to a new account (`newOwner`). Can only be called by the current owner."
      }
    },
    "version": 1
  },
  "userdoc": {
    "kind": "user",
    "methods": {},
    "version": 1
  }
}